:020000040800F2
:10000000A83E0020AD920008E1920008E3920008AB
:10001000E9920008E5920008E7920008EB920008D8
:10002000EB920008EB920008EB920008EB920008BC
:10003000EB920008EB9200081D730008C14800080D
:10004000DD730008E7730008F1730008FB73000814
:10005000057400080F740008197400082374000860
:100060002D74000837740008417400084B740008B0
:10007000557400085F740008697400087374000800
:100080007D74000887740008917400089B74000850
:10009000A5740008AF740008B9740008C3740008A0
:1000A000CD740008D7740008E1740008EB740008F0
:1000B000F5740008FF74000809750008137500083E
:1000C0001D75000827750008317500083B7500088C
:1000D000457500084F7500085975000863750008DC
:1000E0006D75000877750008817500088B7500082C
:1000F000957500089F750008A9750008B37500087C
:10010000BD750008C7750008D1750008DB750008CB
:10011000E5750008EF750008F9750008037600081A
:100120000D76000817760008217600082B76000867
:10013000357600083F7600084976000853760008B7
:100140005D76000867760008717600087B76000807
:10015000857600088F76000899760008A376000857
:10016000AD760008B7760008C1760008CB760008A7
:10017000D5760008DF760008E9760008F3760008F7
:08018000FD7600080777000876
:100200002DE9F04FA1B0824602AE002017461D46F0
:10021000029170620DF144080AE017F8011B029880
:10022000D0470290002800F0DA82706A401C7062A9
:10023000387808B9706AD4E22528EED10020F06041
:1002400030617061B061F061306201E040F0010046
:1002500017F8011F2029F9D023290DD02B2904D00C
:100260002D2906D030290AD00CE040F0020080B2DF
:10027000EEE740F00400FAE740F00800F7E740F04E
:100280001000F4E72A290DD129680A1D2A6009689F
:10029000F162002904D5494240F00400F16280B2C5
:1002A0007F1C13E00021F1620BE0F16A6FF0004364
:1002B000994205D001EB810302EB43013039F16231
:1002C0007F1C3A78A2F130010A29EED339782E2921
:1002D00003D04FF0FF31B1621EE017F8011F2A2949
:1002E00006D129680A1D2A607F1C0968B16213E0E3
:1002F0000021B1620BE0B16A6FF00043994205D072
:1003000001EB810302EB43013039B1627F1C3A7883
:10031000A2F130010A29EED330860FF65040397829
:1003200000F048FE08B117F8010B8DF83A009DF86F
:100330003A00682802BF39786829622005D06C2805
:1003400004BF38786C2803D171208DF83A007F1CE7
:1003500011A8B0603978B1F1250029D01C3800F01F
:10036000C080001F022840F2BC80133800F0E480F7
:10037000093800F0B680801E00F07781401E00F042
:100380002081401E022840F2AC80001F00F019813D
:10039000401F7BD0401E00F0CF80401E22D0C01EE8
:1003A0000BD0801E00F0C880C01E00F0C58064E144
:1003B000F068411CF160252169E12868011D296070
:1003C0000068B26A7060002A02D500F00FFE07E0F4
:1003D000002100F02BFE00281ABF7168401AB06A95
:1003E000306156E12868011D296000210068CDE9CF
:1003F00000014FF03C0E11A87060DDE9000111B959
:1004000008B9B26ACAB10206120FA0EB021230326A
:10041000AEF10103D2B29E463A2AA8BF27320009A4
:1004200003F8082040EA0170090908BF002804D039
:10043000726811AB73449A42E5D311A9714471609B
:10044000CEF13C00B16A3061884207DA081AB06127
:100450004FF6EF71308E084030861AE1002940F1E6
:10046000188196F8301001F01401102940F0118124
:10047000F16AF268891AB269891AA1EB000EBEF11D
:10048000010FC0F20681C6F818E002E19DF83A00BB
:10049000622818D0682806D06A280BD06C2819D09A
:1004A000712807D016E02868011D29600068716A6C
:1004B0000180EEE02A68101D28601268706AC1177A
:1004C000C2E90001E5E02868011D29600068716A41
:1004D0000170DEE02868011D29600068716A016012
:1004E000D7E02868C01D20F00700286000F108024E
:1004F0002A60D0E90023CDE90023002B04D5F06861
:10050000421CF2602D220DE0308E820704D5F06887
:10051000421CF2602B2205E0C00705D5F068421CA2
:10052000F260202200F80820F06811AA801870609C
:1005300000A800F0DDF9ACE09DF83A006C2808BF97
:100540002A6811D0712808BF2A6802D02A686A2850
:100550000AD1D21D22F007022A60144604F10802D3
:100560002A60D4E9002303E0131D2B6000231268E6
:10057000CDE90023682808BF92B207D0622808BFDF
:10058000D2B203D0742818BF7A2802D10023CDE953
:10059000002396F8300000075FD5DDE90023002B2B
:1005A00008BF002A59D041F02000782855D1F068C2
:1005B000302200F80820401C421CF26000F80810AD
:1005C0004BE09DF83A0062280CD0682810D06A28C9
:1005D0001AD06C2823D0712816D074281FD07A28FE
:1005E0000CD01CE02868021D2A6090F900201AE057
:1005F0002868021D2A60B0F9002014E02868021D56
:100600002A60002302680FE02868C01D20F0070060
:10061000286000F108022A60D0E9002304E028687D
:10062000021D2A600268D317CDE90023002B04DAEB
:10063000F068421CF2602D220DE0308E820704D556
:10064000F068421CF2602B2205E0C00705D5F06877
:10065000421CF260202200F80820F06811AA8018DD
:10066000706000A800F0C0F813E0F068411CF16071
:1006700029680A1D2A60096809E0F068421CF260D6
:10068000252200F8082021B1F068421CF26000F831
:100690000810F06AF168401AB169401A3169401ACD
:1006A000F169401A7169401A316AA0EB010996F8A4
:1006B00030007F1C400710D420208DF8400000241B
:1006C00009E0012310AA00A9504600F038FC0028D8
:1006D00040F08580641C4C45F3DBF4680DF1440B5D
:1006E0000AE01BF8011B0298D0470290002876D040
:1006F000706A401C7062641E002CF2D130208DF8AC
:1007000040004FF0000BB46909E0012310AA00A9D2
:10071000504600F014FC002861D10BF1010BA345F9
:10072000F3DB3469D6F804B00AE01BF8011B029829
:10073000D0470290002852D0706A401C7062641E3C
:10074000002CF2D130208DF840004FF0000BF469FE
:1007500009E0012310AA00A9504600F0F0FB002890
:100760003DD10BF1010BA345F3DB3069716874696E
:1007700000EB010B09E01BF8011B0298D047029027
:1007800068B3706A401C7062641E002CF3D1302084
:100790008DF840004FF0000B346A08E0012310AAE6
:1007A00000A9504600F0CBFBC8B90BF1010BA345E3
:1007B000F4DB96F8300040077FF53AAD20208DF845
:1007C0004000002400E0641C4C45BFF631AD01231D
:1007D00010AA00A9504600F0B2FB0028F3D04FF059
:1007E000FF3021B0BDE8F08F2DE9FA4E05460A46EC
:1007F0002F696F2A08BF082405D041F0200078280F
:1008000014BF0A241024D5E900013C2681468B46FA
:10081000642A18BF692A05D1002903DAD9F1000931
:100820006BEB4B0BBBF1000F08BFB9F1000F0CD104
:10083000286B50B9082C36D195F83800000732D50E
:1008400030203B2687F83B002DE0E3174846594609
:10085000224600F017FCA4FB0023A9EB0202303271
:10086000A6F1010AD2B256463A2A03DB9DF80030BF
:10087000513B9A180AF8072081465FEA010B08BF2E
:10088000B9F1000F03D0E868F1198842DDD3082CD4
:1008900009D195F83800000705D5F05D302802D061
:1008A000761E3020F055C6F13C00A861F119E960D0
:1008B000296B884208DA081A28624FF6EF71288FF0
:1008C00008402887BDE8F38E00290ED595F838102A
:1008D00001F01401102908D1696B6A69891A2A6A22
:1008E000891A081A0128A8BF2862BDE8F38E000003
:1008F0002DE9F04F07468FB08B46D7E90001CDE9CF
:10090000020104AE4BF0200061280BD0386B0028A8
:1009100048BF062005D404BF4BF02000672801D152
:10092000012038637968C1F30A5040F2FF729042A7
:100930001AD1080304BF3868002808D10320B86121
:10094000ABF161001A2835D30FF2346107E00320C0
:10095000B861ABF161001A2829D30FF21C61F86865
:10096000032200F007FCB6E1012816DA384600F051
:100970003CFC012811DB002400204BF02001612900
:100980001FD1F968302201F8012B4A1CFA60BBF133
:10099000610F0CBF782258220FE07A6840F2FE31D6
:1009A00061F31E52441A7A604FF0FF30E5E70FF210
:1009B000C451D4E70FF2C451D1E70A707969891C98
:1009C000796110B9002500247DE14BF020006128F9
:1009D00040F09580386B00284CBF2125451CDDE98F
:1009E00002012DB26E1CD7E900890022002300F01D
:1009F0001DFC3ABF89F00040CDE90280CDE90289B3
:100A0000241F8DF810200DF1110A01E000F2070AF1
:100A1000012E32DBDDE902010022002300F01EFC82
:100A20002BD21C2102A800F031FCDDE9020100F00C
:100A3000B7FCF61F8046012E09DB00F0DDFC024604
:100A40000B46DDE9020100F0EFFCCDE902010AF2FC
:100A50000700072105E008F00F0200F8012D4FEA1A
:100A60002818B8F1010F01DB491EF4D5491E5CBFFF
:100A7000002200F8012DF9D5C8E70DF11100AAEB0D
:100A800000010DF11106A942B8BF0D462DB2280094
:100A90002ED4884206DA04A9411849780829A8BF4B
:100AA0000F2100DA002104AA821800E06D1E12F85E
:100AB0000139401E8B42F9D00F2904D104A94118F5
:100AC0004A78521C4A70002802D504AE6D1C241DC1
:100AD0002DB2681E0CD48119ABF13A030A7830327A
:100AE000D2B23A2AA8BF9A1801F80129401EF5D5BA
:100AF000386B002840F1E780681E3863E3E0DDE9E9
:100B000002010022002300F091FB3CBF81F0004174
:100B1000CDE9020124B247F2975060434849DFF81B
:100B200024A190FBF1F424B2C4F107050026012DA5
:100B300019DBDDE90289E80707D53246534640460E
:100B4000494600F031FD804689466D1030465146D9
:100B50003246534600F028FD06468A46002DEAD16B
:100B6000CDE9028921E06D429046DFF8DC9012E089
:100B7000E80707D5324653464046494600F014FD83
:100B8000804689466D10304651463246534600F045
:100B90000BFD06468A46002DEAD1DDE902014246F8
:100BA0004B4600F0D3FDCDE902014BF02000662852
:100BB0000CBF04F10A000620396B4518142DA8BF9C
:100BC000132530208DF810000DF11106DFF87C9010
:100BD000012D3DDBDDE9020100F0F8FB06F1080123
:100BE00004220A23B0FBF3F303EB8306A0EB4600D9
:100BF000303001F8010D0A20B3FBF0F000EB800665
:100C0000A3EB4603303301F8013D521EE9D1083D04
:100C100001F10806012DDBDBDDE9020100F0D6FB66
:100C200000F0F4FB02460B46DDE9020100F0FCFB9C
:100C300000224B4600F0B8FCCDE90201CAE700BF34
:100C4000A0860100000024400000F03F84D79741B7
:100C50000DF11100301A0DF1110602E0401E641E64
:100C6000761C31783029F9D04BF02001662902D169
:100C700024B2611C03E065290CBF012100213A6BFD
:100C80008D182DB2A842B8BF05462DB229001AD43E
:100C9000814204DA885D3528A8BF392000DA302087
:100CA0008A19521E00E06D1E12F80139491E834256
:100CB000F9D0392802D1885D401C8855002902D519
:100CC000761E6D1C641C24B200942BB23246594629
:100CD000384600F003F80FB0BDE8F08F2DE9F0437F
:100CE000054685B01E46D5F8308089461746012E48
:100CF00002DA01260FF28C2749F02000BDF93040BE
:100D0000662808BF641C17D0672840F0818014F162
:100D1000040FC0F28380444580F2808095F838004B
:100D2000641C000702D44645B8BFB04624B2B8EBF5
:100D3000040848BF4FF00008E868A96924B2012CF4
:100D400025DA30234A1C0B54B8F1010F03DA95F869
:100D50003810090702D52E211154521CAA6118EB34
:100D6000040FB8BFC8F1000424B26142A044696214
:100D7000B045B8BF464636B2EE613246AB69394639
:100D8000181800F0F7F9A8EB0600A862C0E00818F0
:100D9000A64218DA3246394600F0ECF9A969711812
:100DA000A961A01B6862B8F1010F03DA95F8380059
:100DB000000705D5EA682E208854E869401CE861E0
:100DC000C5F82880A4E02246394600F0D3F9A86986
:100DD0002018361BB8F1010F03DA95F8381009070F
:100DE00003D5EA682E218154401C36B2A861B04573
:100DF000B8BF4646EB6836B23246E119C01800F07B
:100E0000B9F9A8693018A861A8EB060068627FE00C
:100E1000B9F1610F16D14FF0700918E0464504DAB8
:100E200095F83810090758BFB046B8F1010848BF17
:100E30004FF00008B9F1670F14BF4FF045094FF0AC
:100E4000650904E0B9F1410F08BF4FF05009A969E5
:100E5000E86817F8013B0B544A1CB8F1010F05DA9A
:100E600095F83810090758BFAA6117D52E211154DB
:100E7000531CAB61B8F1010F10DB761E36B2B045E2
:100E8000B8BF464636B232463946181800F072F9F5
:100E9000A8693018A861A8EB06006862A869E9682B
:100EA0004718200007F8019B03D42B2007F8010BFB
:100EB00003E02D2107F8011B644200260DF108080C
:100EC00008E00A2200A800F064FD019808F8010B70
:100ED000761C009C21B20129F3DA022E06DA49F0D1
:100EE0002000652804BF302007F8010B4EB93020E0
:100EF00007F8010B07E0761E02A8305C303007F8D7
:100F0000010B012EF7DAA869E9684018381AE86180
:100F100095F8380000F0140010280DD16869A9690F
:100F20000818696A0818E9690818A96A0818696B35
:100F30008842BCBF081A286205B0BDE8F083F8B546
:100F400004460D4616461F46002004E0E86A401C91
:100F5000E8627F1E002047B116F8011BA868A04771
:100F6000A8600028F2D14FF0FF30F2BD686A6C74BF
:100F70007A4C00006E616E004E414E00696E660054
:100F8000494E4600300010B450F8041B81B102688D
:100F90001218001D50F8043BDC0744BFA9F10104FE
:100FA000E31852F8044B43F8044B091FF9D1EBE75F
:100FB00010BC70470278C9B28A421AB11CBF10F83F
:100FC000012FF9E718BF0020704750F8041B61B1EA
:100FD00050F8042BD30744BFA9F101039A1800234A
:100FE00042F8043B091FFAD1EFE7704700F1010313
:100FF000810704D010F8011B89B18107FAD102687A
:10100000B2F10131914311F0803F04BF50F8042F39
:10101000F6E710F8011B11B110F8011BFBE7C01A2D
:1010200070470268531C036011707047C9B2830790
:1010300006D0521E22D310F8013B9942F7D11FE08F
:10104000083A13D302F1040241EA012141EA0141C5
:1010500050F8043B121F21BF4B40A3F1013C2CEA86
:10106000030C1CF0803FF3D0C9B2001F083210F807
:10107000013B521E28BF91EA030FF8D818BF012088
:10108000401E70471B4213D1094236D12AB1844613
:10109000B0FBF2F002FB10C2704700F081BCFCD341
:1010A0000022002370470B0002000021002070473F
:1010B000904271EB030CF6D370B5B1FA81F4B3FA38
:1010C00083F52C1BA340C4F1200532FA05F6334307
:1010D000A2405FF00046E64002E05B085FEA3202B1
:1010E000841A71EB030524BF204629467641F4D3C8
:1010F00002000B003000002170BD012ACFD970B56D
:10110000140C20D0B1FA81F4B2FA82F5C4F12004B3
:101110006419B4F12006D6D3B2405FF00044F44025
:10112000002502E052085FEA3303C61A71EB020E93
:1011300024BF3046714664416D41F3D302000B0079
:101140002000290070BD0C46B1FBF2F102FB1145F5
:101150002D0445EA1045B5FBF2F402FB145580B2AC
:1011600040EA0545B5FBF2F002FB105240EA0440AC
:1011700070BD640062B38B0708D0521E11F8013BAA
:1011800000F8013B00F024808B07F6D1830740F084
:10119000208000BF103A07D330B4B1E83810103ABD
:1011A000A0E83810F9D230BC530724BFB1E80810CA
:1011B000A0E8081044BF51F8043B40F8043BD207B4
:1011C00024BF31F8022B20F8022B44BF0B780370A8
:1011D0007047083A07D3B1E80810083A40F8043BD2
:1011E00040F804CBF7D25307E4E730B4436803F088
:1011F000004201211B031B0B436004BF0368002B4B
:1012000008D10DE00368DD0F45EA440444605B004B
:101210000360491E4468E302F4D523031B0B4360BB
:1012200043681A434260084630BC70474FF4001CC4
:101230001CEB410F94BF1CEB430F09E041EA030C88
:1012400050EA4C0C52EA0C0C03D2994208BF90426F
:10125000704714BF8B428242704728004FF4001C35
:101260001CEB410F94BF1CEB430F09E041EA030C58
:1012700050EA4C0C52EA0C0C03D28B4208BF82425B
:10128000704714BF994290427047040070B50446FD
:101290000D466068C0F30A5040F2FF71884207D1E2
:1012A0006068000304BF2068002817D0022070BDCA
:1012B00020B92046FFF799FF012867DA012D0FDBDF
:1012C00040F2FF71091A8D420AD3606800284CBFB2
:1012D0009FED2F0B9FED300B84ED000B012070BDB7
:1012E0004142A942616806DA6FF31E51401941EA92
:1012F0000050606041E0401E63680122451962F3BE
:101300001F5305F1350001F000416360352803D318
:1013100061600020206070BD002215F11F0F04DA0B
:1013200022682360002020356060684213D0521E7E
:1013300025689241C0F12003D2439D4045EAD27214
:1013400025686668C54006FA03F32B43236063688B
:1013500023FA00F06060606808436060B2F1004FFB
:1013600003D80DD12078C0070AD52068401C206022
:10137000206828B96068401C60604FF0FF3070BD85
:101380006068884204BF20680028F6D1002070BD44
:10139000000000000000F0FF000000000000F07FEF
:1013A000F446400D40EAC120490006D200F014F88E
:1013B000004248BF6FF00040604700F00DF84FF06A
:1013C000004188428CBF084640426047400D40EAD9
:1013D000C120490080F00D8040F00040490DA1F58A
:1013E0008061491C05D4D1F11F0154BFC840C0170A
:1013F00070474FF000007047010040F10980F4464B
:10140000404200F005F851F000416047010000BF84
:1014100009D0B0FA80F18840C91CC1F58461090582
:1014200001EBD0214005704770B44FF0004591EAC0
:10143000030F44BF6B4000F0B5BA00BF841A71EBD4
:10144000030604D26E40001BB141121973414FF4E0
:10145000001C1CEB410F34BF7CEB430684E00C0DF9
:10146000A4EB1356362E7DDC012E43DC45EAC32364
:1014700043EA525312BFD20292025B08240545EAA6
:10148000C12141EA5051D2EBC020994125D407D166
:10149000B0FA80F610FA06F164D00020203608E099
:1014A000B1FA81F6B140C6F1200220FA02F21143EE
:1014B000B0404FEAF474B4EB465434F001064FEAFE
:1014C00074040AD8D6F50016760D04F00044F040F6
:1014D00061FA06F25040F1404840C00A40EA4150EB
:1014E00021F0004128BF5FEA500550F1000044EBB5
:1014F000D12137E045EAC323DB0A45EAC121C90A05
:10150000B6F120050EDD42EA0242120CC5F12006BA
:1015100003FA06F6EB4042EA06056D42984161F196
:1015200000010DE062FA06F5F240554063FA06FC50
:1015300082EA0C02F3405A406D42904161EB030194
:1015400011F4801F05D1641E620502D06D00404178
:10155000494121F48011430875F1004350F1000026
:1015600041EB045170BC70471CEB410F15D223F0C6
:10157000004352EA43060BD04FEA4C0CBCEB410F40
:1015800004D80C0D661E342EB7DDEBE7801A9941A6
:1015900050EA410608BF0021E4E708BF1CEB430FF7
:1015A00028BF6FF00001DDE7B0B581EA030C0CF055
:1015B000004C40F2FF7515EA11541DBF15EA135790
:1015C000AC42AF4239E0E41923EA455343F48013B7
:1015D000C90241F0004141EA505EC7021100A7FB79
:1015E000020200284FF00000EEFB01204FF0000146
:1015F000E3FB072118BF42F00102401800214941D6
:10160000E3FB0E01A4F580640F0302D252004041B7
:10161000494154F101046CDD470872F1004250F178
:10162000000051EB0451A1F580115CBF41EA0C01AF
:10163000B0BD4CEA05510020B0BD05EA1357AC42DD
:1016400014BFAF4241E050EA410E1CBF52EA430EC4
:1016500002E061460020B0BD24423C441BD15FEA59
:10166000070EF6D0090302BF01460020AEF1140EAA
:10167000B1FA81F7AEEB070401FA07FE0C37C7F1A8
:10168000200100FA07F7C8404EEA000E23EA45534E
:1016900043F48013A2E733F00043B3FA83F704BFA7
:1016A000B2FA82FE77440B3FE41BB7F1200E2FBF46
:1016B00002FA0EF3BB40C7F1200E22FA0EFE38BF2D
:1016C00043EA0E03BA40641C82E750EA410E14BF9D
:1016D00052EA430E6FF000014FF4001717EB430F6F
:1016E0008ABF194617EB410FB5E74CEA05510020B8
:1016F000B0BDD4F10104B4F120070FDAC4F1200722
:10170000520828BF42F0010210FA07F501FA07F764
:10171000E1BF2A43E0403843E1400FE0352C98DC3C
:10172000C7F1200452EA400220FA07F218BF42F043
:10173000010231FA07F0A1400A43002172F1004290
:1017400050F1000051EB0C01B0BD2000F0B540F2AB
:10175000FF7581EA030C0CF0004C15EA11541DBF13
:1017600015EA1357AC42AF42E5E0BC41C1F31301A7
:10177000C3F31303801A994143F4801304D2641E07
:101780004000494180185941C90241EA5051B1FB1A
:10179000F3F603FB1611A2FB0675D7EBC020A94197
:1017A00002D2761E80185941C90241EA5051B1FB5C
:1017B000F3FE03FB1E11A2FB0E75D7EBC020A9415F
:1017C00003D2AEF1010E80185941890241EA9051CD
:1017D000760546EA8E2EB1FBF3F603FB1611A2FB4B
:1017E0000675D7EB8020A94102D2761E8018594198
:1017F000C90241EA50514EEA060EB1FBF3F603FB73
:101800001611A2FB0675D7EBC020A94102D2761EA5
:1018100080185941C90241EA5051B1FBF3F703FB6B
:101820001711A2FB0735D3EBC020A94167F10007D0
:101830000CBF004247F0010766F3D5274FEA1E317F
:10184000B80814F5806412DDBD0775F1004250EB55
:101850000E5051EB045111F5801F5CBF41EA0C01A1
:10186000F0BD4CF07F6141F0E0410020F0BDBD07CC
:101870006D0840EA0E5041F48011D4F10104B4F136
:1018800020060ADAC4F120060200E04001FA06F35D
:10189000E1401843B24015430EE0342C13DCC6F18E
:1018A000200445EA40056D0820FA06F2154321FAA6
:1018B00006F0A1400D43002175F1004250F10000F7
:1018C00051EB0C01F0BD00205FEA0C01F0BDCFB977
:1018D00092185B41B3FA83F704BFB2FA82F6BF19DC
:1018E0000B3FB7F120062FBF02FA06F3BB40C7F14A
:1018F000200622FA06F638BF3343BA401CB1E41979
:10190000641E33E77F4231F00041B1FA81F404BF35
:10191000B0FA80F6A4190B3CB4F120062FBF00FAF0
:1019200006F1A140C4F1200620FA06F638BF314383
:10193000A0403C1B1AE7AC421ABF05EA1357AF425E
:1019400012E050EA41061CBF52EA4306BFE750EAE4
:101950004107304661461CBF41EA0551F0BD52EADD
:10196000430C08BFC143F0BD00204FF4001616EB36
:10197000410F98BF16EB430F08BF16EB410F24BF72
:10198000C14305E016EB430F0CBF61464CEA05511D
:10199000F0BD91FBF2F303FB1211C0E90031704777
:1019A00070471000841A71EB030603D2001BB1418B
:1019B000121973414FF4001C1CEB410F34BF7CEB38
:1019C000430443E00C0DA4EB1356352E50DC45EADE
:1019D000C323DB0A45EAC121C912B6F120050DDD9A
:1019E00063FA05F6EB4086EA0305124218BF45F09C
:1019F0000105C01851F100010CD213E062FA06F59E
:101A0000F2405540F3415A40B340F3405A408018E9
:101A1000594107D349085FEA30005FEA350528BF1E
:101A200045F0010501F58011420875F1004250F1C1
:101A3000000041EB045170BC4FF4001C1CEB410F43
:101A400038BF70470020090D090570471CEB410F96
:101A500010D252EA43060BD0BCEB410F05D80C0D57
:101A6000AB43661E342EB5DD02E0AB43801859410E
:101A700070BC704770BC704738B500A800F068FEB5
:101A8000BDF800003C2802D0BDF800002AE000208C
:101A90000400E4B2022C20D2E4B2C020DFF898188F
:101AA00000FB04100500280000F076FC6C7000209C
:101AB00028700020A87000206860002028640020A2
:101AC000E8660DF1020115F11C0001F029F8002073
:101AD00068630020A863641CDBE70020DFF8AC1813
:101AE0000870002032BD2DE9FC4F87B004000D00C6
:101AF000129E5FF0000BEFF31080834672B601F088
:101B0000BAF9DFF888080078022806D301F0C7F98F
:101B10008BF310882820308004E100208146DFF814
:101B20006C0800785FFA89F981451BD25FFA89F960
:101B3000C020DFF8041800FB0910070021007868B6
:101B400001F07BFAADF81400BDF91400002806D1AD
:101B500001F0A5F98BF310881E203080E2E019F126
:101B60000109DCE701208DF8100000208146DFF834
:101B70001C0800785FFA89F9814516D25FFA89F965
:101B8000C020DFF8B41700FB0910070038780128DF
:101B900008D1F86840686968884203D100208DF850
:101BA000100002E019F10109E1E79DF81000012899
:101BB0000BD130006968096888473088002804D054
:101BC00001F06DF98BF31088ACE0DFF8C007007806
:101BD000C021DFF8642701FB002007000DF112008F
:101BE000039006A80290042001901C20009001237D
:101BF0000022002117F11C0000F0E6FEBDF91200E2
:101C000042F21071884206D001F049F98BF3108836
:101C10000720308086E0022000F0B8FDF866F86EFC
:101C2000002806D101F03BF98BF3108803203080A7
:101C300078E0012000F0AAFD3864386C002806D155
:101C400001F02DF98BF31088032030806AE07C606E
:101C5000DFF838070078401CDFF83017087001F013
:101C60001EF98BF3108817F108008046787888F801
:101C70000000C8F804500020C8F808000020C8F888
:101C80000C000020C8F810000020308007A80020B9
:101C900087F890000798002817D00DF1120306AAC4
:101CA0000421079800F04CFE8246BAF1000F02D1E1
:101CB0000920308009E0012087F890000023079A6E
:101CC000514617F1940001F02CFA08A8002087F87B
:101CD000A8000898002817D00DF1120306AA0421C5
:101CE000089800F02DFE8246BAF1000F02D10920BB
:101CF000308009E0012087F8A8000023089A5146A7
:101D000017F1AC0001F00DFAEFF31080834672B6C4
:101D100001F0B1F8012038700120B87001F0BFF86F
:101D20008BF3108809B0BDE8F08F10B40200DFF823
:101D30005C060078D2B2824203D3062008800020DD
:101D400017E0D2B2C020DFF8F04500FB02400300EC
:101D50001878012803D006200880002009E0987830
:101D6000032803D029200880002002E000200880FA
:101D7000012010BC70472DE9F84F04000D0016003B
:101D80005FF0000B002D02D1DFF804060500EFF331
:101D90001080834672B601F06EF831002000C0B2A8
:101DA000FFF7C3FF81465FFA89F9B9F1010F04D04B
:101DB00001F075F88BF310883DE0E4B2C020DFF845
:101DC000781500FB0410070017F108008046310069
:101DD00040462A68904782463088002804D001F0A7
:101DE0005EF88BF3108826E03200D8F810104046D9
:101DF000D8F80C305B6898473088002809D000AAD2
:101E0000514640466B68984701F049F88BF31088BB
:101E100011E097F89000012803D117F1940001F028
:101E200090F9C8F80C50C8F810A001F038F88BF3FE
:101E3000108800203080BDE8F18F2DE9F04F83B08D
:101E400004000D0016005FF0000B0020804600200B
:101E50008DF8000000200700DFF830050078FFB2A1
:101E6000874217D2FFB2C020DFF8CC1400FB071066
:101E700080462100D8F8040001F0DFF8ADF8020038
:101E8000BDF90200002803D101208DF8000001E017
:101E90007F1CE1E79DF80000002803D11F2030805F
:101EA000FF206AE018F108008146EFF310808346B6
:101EB00072B600F0E0FF98F80200012807D000F0A9
:101EC000EEFF8BF3108820203080FF2055E0DFF8F4
:101ED000C004824631004846DAF80020904701905D
:101EE0003088002805D000F0DAFF8BF31088FF203F
:101EF00043E0320029004846D9F804305B685B684B
:101F00009847308800280DD0320001994846DAF809
:101F10000430984700F0C3FF8BF310881520308001
:101F2000FF202AE0C9F80CA00198C9F8100098F821
:101F30009000012812D10020A8F8920031004846F4
:101F4000D9F804205268D26890473088002805D01C
:101F500000F0A5FF8BF31088FF200EE0012088F829
:101F60003C00012088F86800032088F8020000F097
:101F700096FF8BF3108898F80100BDE8FE8F2DE9DD
:101F8000F04F8DB004000D0016001F00DDF85880E2
:101F90005FF0000B002E04D10020A8F80000002004
:101FA0005FE00397002004900020ADF8140006962F
:101FB00007950FF28170089002A809900A95414692
:101FC0002000C0B2FFF7B1FE8DF804009DF80400B8
:101FD000012801D0002044E0E4B2C020DFF858130B
:101FE00000FB0410814642460021D9F86C0000F045
:101FF00007FCB8F800003C2801D0002031E00020A8
:1020000000F0C4FB00900098002808D1D9F86C00BB
:1020100000F024FC0320A8F80000002021E0009834
:102020000290EFF31080834672B600F024FF424620
:1020300006A9484600F0ADFA00F031FF8BF3108896
:10204000B8F80000002806D1424602A9484600F030
:1020500011FB824601E000208246009800F0BBFBA5
:1020600050460DB0BDE8F08F2DE9F24F86B0040068
:102070005FF0000A20788DF805009DF80500C0216A
:10208000AD4A01FB0020050000200700EFF310809F
:10209000824672B600F0EFFE95F83C00012804D0AD
:1020A0001CD3032844D025D318E095F890000128CC
:1020B0000FD1B5F8920000280BD115F192039DF8CD
:1020C000182015F194012000D4F80CC0DCF80CC0E5
:1020D000E04700F0E4FE8AF31088A9E00DF1060164
:1020E0002000626852681269904700F0D8FE8AF3B7
:1020F00010889DE015F1540006000DF106039DF8CF
:10210000182031002000D4F80CC0DCF80CC0E047E7
:10211000300001F0B2F88DF80400BDF80600002888
:1021200003D19DF80400012801D10120070053E0EC
:1021300015F15400060095F8900001283CD1B5F83F
:10214000920000280CD00020A5F8920015F1940010
:1021500000F0F7FF01232A6DE96C300000F0E1FF89
:1021600015F192039DF8182015F194012000D4F880
:102170000CC0DCF80CC0E04706A915F1940000F093
:10218000E5FF81465FFA89F9B9F1010F0ED19DF89B
:102190001810300001F035F880465FFA88F8B8F181
:1021A000010F03D101200700002081465FFA89F961
:1021B000B9F1010F10D1DFE79DF81810300001F0E0
:1021C00020F880465FFA88F8B8F1010F04D10120A9
:1021D00007000020ADF80600FFB2012F24D1300027
:1021E00001F058F88346286D10EB0B0BA86C049097
:1021F000E86C0390686C0290280000F000F9286CED
:1022000000F02CFB029800280ED000F048FE8AF364
:102210001088BDF8060000905B46039A0499687820
:10222000DDF808C0E04703E000F039FE8AF31088CB
:1022300007B0BDE8F08F2DE9F04F85B004005FF0E6
:10224000000B20788DF807009DF80700C0213A4A5E
:1022500001FB00200500EFF31080834672B600F00A
:102260000AFE95F86800022802D003284FD056E0F5
:1022700015F17C00060001AB0DF1060231002000D3
:10228000D4F80CC0DCF808C0E047BDF80400002812
:102290000CD101AA9DF80610200063685B681B6AD8
:1022A000984700F0FCFD8BF3108842E0300000F00E
:1022B000EDFF8246300000F0EDFF8146BAEB0900E9
:1022C0008046286F0700686F0390A86F029028006F
:1022D00000F088F8280000F088F900F0E0FD8BF3AA
:1022E0001088E86E00F0BAFA380000280ED0BDF869
:1022F0000400042801D1002001E0BDF8040080B2F0
:1023000000904346029A03996878B84711E0280084
:1023100000F06BF900F0C3FD8BF3108809E001A910
:10232000200062685268D269904700F0B8FD8BF3D4
:10233000108805B0BDE8F08FF0300020F8B504003B
:102340000D0020780700FFB2C020124900FB0710E3
:10235000060096F8A800012817D196F86800401EDC
:1023600003D0401E012809D90FE000AA2900C9B2F4
:10237000200063685B681B6A984706E02900C9B2C1
:1023800016F1AC0000F010FFFFE7F1BDA43C002007
:10239000F4950008F030002010B50400002084F807
:1023A0003C00200000F00FF8002084F868002000B6
:1023B00000F018F80020E06000202061002060613B
:1023C0000020A06110BD10B5040000206064002052
:1023D000A0640020E0640020206514F1540000F0A7
:1023E000B0FE10BD10B5040000202067002060671B
:1023F0000020A06714F17C0000F0A3FE10BD10B512
:102400000400200000F007F8012084F83C002000C0
:10241000FFF7D9FF10BD38B5040014F1080005001E
:1024200094F89000002805D100A928006A68526835
:102430001269904731BDF3B581B0140001A802A81C
:1024400000AA1C2101981C3000F07AFB0500BDF9A0
:10245000000042F21071884202D0082020802DE056
:102460000298006828600298406868600298806856
:10247000A8600298C068E86002980069286100209E
:1024800007000198406B002805D10198806B002857
:1024900001D1012007000198806B06000298866137
:1024A000002002994861FFB2012F02D101984563D3
:1024B00000E075610198856300202080F7BD33B589
:1024C00081B001A802A8002005000198406B04001B
:1024D000002C02D12800C0B230E00198406B019975
:1024E000896B884206D10020019948630020019938
:1024F000886302E060690199486320680299086076
:10250000606802994860A06802998860E068029952
:10251000C86020690299086100AA210001981C3056
:1025200000F03AFBBDF9000042F21071884201D080
:10253000002003E0012005002800C0B23EBDF8B530
:1025400004000D00160001232A68696814F17C005C
:1025500000F0E7FDA8682067E86860672869A06761
:1025600014F108000700330000AA14F17C013800C0
:10257000D7F80CC0DCF808C0E0473088002807D145
:1025800032009DF8001038007B685B681B6A984732
:10259000F1BDF8B504000D00160094F8680000289D
:1025A00020D0022818D002D3032815D01CE0022026
:1025B00084F86800320029002000FFF7C0FF30884F
:1025C000002811D114F10800070000A938007A682A
:1025D00052689269904707E0320029002000FFF717
:1025E0002AFF01E029203080F1BD2DE9F04188B0BB
:1025F000040094F8A80001281CD114F1AC000700D5
:102600000DF10201380000F0A1FD80465FFA88F864
:10261000B8F1010F0ED1032084F8680014F108000E
:10262000050000AA9DF8021028006B685B681B6A11
:1026300098471CE001A92000FFF741FF0600F6B211
:10264000012E0CD0012084F8680014F10800050068
:1026500000A928006A685268D269904707E0022002
:1026600084F8680000AA01A92000FFF768FF08B0FD
:10267000BDE8F0812DE9F04704000D0016005FF081
:10268000000A32006968286800F0BAF830883C28EF
:1026900002D03E2805D027E0A8893080A86807002E
:1026A00044E0EFF31080824672B600F0E4FB14F1D0
:1026B0007C0000F0EBFD804614F17C0000F0EAFDA8
:1026C0008146B8EB090007002000FFF78BFE2000D1
:1026D000FFF78BFF00F0E3FB8AF31088E06E00F059
:1026E000BDF80B20308021E0EFF31080824672B6F7
:1026F00000F0C1FB14F17C0000F0C8FD804614F12D
:102700007C0000F0C7FD8146B8EB090007002000FF
:10271000FFF768FE2000FFF768FF00F0C0FB8AF3B8
:102720001088E06E00F09AF80A2030803800BDE88A
:10273000F0870000F5B581B00D001E00089C01A8CF
:1027400002A82F00BE60BC81386800F087F8F7BD92
:1027500010B586B0040004A8039005A802900120DB
:102760000190282000900A2300220021394800F01F
:102770002BF9BDF9100042F21071884202D03F20BF
:10278000208001E03C20208006B010BD38B5040058
:1027900000AA28212F4800F0D3F90500BDF9000058
:1027A00042F21071884201D0002013E00DF10203C3
:1027B000A4B222000021280000F072FDBDF8020042
:1027C000002806D000AA2900224800F0E5F90020E0
:1027D00000E0280032BD10B582B0040000AA4FF41A
:1027E0008071200000F0AAFE00AA0121200000F064
:1027F00082FD0DF102022100164800F0CDF913BD53
:10280000F0B583B004000D0016001348006800FB0B
:1028100005F000F2E7304FF47A71B0FBF1F00700F9
:1028200001A80090002300223900200000F0DBFD09
:10283000BDF80410002904D047F2D922914203D0F8
:1028400005E03C20308004E03E20308001E03D2067
:102850003080F7BD803B0020DC96000810B582B0C8
:10286000040000AA0021200000F0B1FEBDF8001015
:10287000002901D0002000E0012016BD10B584B071
:102880000020DFF8DC130860DFF8D803040002A89A
:102890000190012000904FF480632200DFF8C813FC
:1028A000DFF8C80300F06CF8BDF9080042F21071BF
:1028B000884201D000F066FA1FBD38B504000D0053
:1028C0002A000021200000F001F831BD2DE9F0417F
:1028D0005FF0000E74465FF0000EF446BCF1040F8A
:1028E00005D22402C9B20C431CF1010CF6E7130017
:1028F0005FF0040EB0FBFEF808FB1E085FFA88F8D4
:1029000047460600002F0BD0BC46002B08D0BCF178
:10291000040F05D23170761C5B1E1CF1010CF4E72C
:102920003500042B03D32C602D1D1B1FF9E72E004F
:10293000002B03D03170761C5B1EF9E7BDE8F081F7
:102940002DE9F04184B004000D0016001F0002972D
:102950000196012000902B002200DFF80C130020CC
:1029600000F08AF98046B7F9000042F2D971884236
:1029700002D142F2E3703880404604B0BDE8F081F5
:102980002DE9F04782B004000D0016001F00DDF8AD
:102990002880DDF82C905FF0000AEFF3108082466B
:1029A00072B600F068FA0097434632002900200012
:1029B00000F018F900F073FA8AF3108842F21070F0
:1029C000A9F80000BDE8F3872DE9F64F87B00400B1
:1029D0001D00139E159F5FF0000A3900200000F0D3
:1029E0009FF8B7F9000042F21071884240F09580DC
:1029F0000798002803D1DFF8700203903CE0EFF362
:102A00001080824672B600F036FA3A0008990798AC
:102A100000F0F8F80390B7F9000042F21071401A84
:102A200002D070381FD123E0019714980090012341
:102A300004221421DFF8300200F050F90390B7F9B6
:102A4000000042F21071884204D000F028FA8AF3A4
:102A5000108862E0089800900123079A03990020EB
:102A600000F0C0F804E000F01AFA8AF3108854E08D
:102A700000F015FA8AF310881298711E084201D1ED
:102A8000002000E030001299721E914310EB010B00
:102A900005FB0BF00590029714980190012000901F
:102AA0003300059A0399DFF8C80100F0E5F80490B7
:102AB000B7F9000042F2107188422ED102971498A3
:102AC0000190012000900423AA00DFF89C11DFF898
:102AD000A40100F0D1F82061B7F9000042F21071B2
:102AE00088421AD10498814600208046A84507D222
:102AF000206940F828901BEB090918F10108F5E757
:102B0000049805990818401E0690049820600698BD
:102B10006060A560C4F80CB0656109B0BDE8F08FD5
:102B200000220260002242600022C2600022826015
:102B3000002202610022426142F210720A80704754
:102B4000F2B504001500002700A800200600EFF3EE
:102B50001080070072B600F08EF9606900280CD072
:102B60006069401E60616069216951F820000600BB
:102B700060692169002241F8202000F090F987F374
:102B80001088002E03D142F2DE70288002E042F26B
:102B9000107028803000F2BDF8B504000D0016005A
:102BA0000027EFF31080070072B600F064F9606947
:102BB000A168884207D300F072F987F3108842F2C7
:102BC000DD7030800DE06069216941F82050606956
:102BD000401C606100F063F987F3108842F21070C6
:102BE0003080F1BD11B402980A608418641E4C60F4
:102BF0008A601B4C2468CC600B6100AC184C2160CF
:102C000011BC7047F0B40300C818401E05001448FA
:102C100000680400002C1BD02068060060680700D4
:102C2000B34206D1BD4204D14FF41E5010802000A3
:102C300012E0B34201D39F4203D29E4206D3B54273
:102C400004D342F27F701080200005E0E468E1E7E1
:102C500042F2107010800020F0BC704700000000AD
:102C6000F43B002050220020983B00208096000872
:102C700050950008A09400082DE9F14F82B00C0097
:102C800015001E000C9FDDF83480DDF838905FF0F1
:102C9000000BEFF31080834672B600F0ECF8CDF82D
:102CA0000490CDF800803B0032002900200000F0A5
:102CB00015F88246B9F9000042F21071884205D039
:102CC00000F0EDF88BF31088002005E002A800F07A
:102CD000E6F88BF310885046BDE8FE8F2DE9F047EB
:102CE0000400089D099E934201D2964600E09E464C
:102CF000A068BEF1010A10EA0A0F01D1002000E02D
:102D00007046D4F80880BEF1010A38EA0A0810EBD0
:102D1000080811EB0800B3F1010A10EA0A0F01D10B
:102D2000002000E0180011EB0809B3F1010A39EAAC
:102D30000A0910EB09096068D4F808A0B0EB0A0092
:102D4000401C0700A068B9EB00008446674509D223
:102D5000002D02D0BCEB0700286042F2D970308011
:102D6000002005E0C4F8089042F210703080404620
:102D7000BDE8F08780B500F0B7F800F0BCF800F0CF
:102D8000AFF801BDFEE710B50024EFF3108004009A
:102D900072B600F070F81021DFF8F001FFF78DFD3A
:102DA00000F07DF884F3108810BD2DE9F041040097
:102DB0000D000027002D01D1FFF7E4FF002C02D108
:102DC0000A2028801DE01021200000F0FBF80600FA
:102DD000102E13D2EFF31080070072B600F04BF8FC
:102DE00010222100DFF8A40100F0FDF8804600F079
:102DF00056F887F310880020288002E04FF47A709C
:102E00002880BDE8F081DFF888110860704738B588
:102E1000002500F00DF80400EFF31080050072B6F5
:102E20000020DFF87011086085F31088200032BDA3
:102E300070B50026EFF31080060072B6DFF854017B
:102E40000068040086F31088200000F090F8050068
:102E5000280070BD70B50026EFF31080060072B632
:102E60004D480068040086F31088200000F07FF8C9
:102E70000500280070BD80B548480088401C4749BF
:102E8000088047480088002803D100F092FC45499B
:102E9000086043480088401C4149088001BD10B5C6
:102EA0003F480088401E3E4908803D480088002871
:102EB00015D100F07EFC3C4908603B480068394968
:102EC0000968401A040033480068A04201D2314822
:102ED000046031480068A04201D22F48046010BD50
:102EE00080B5FFF750FF01BD80B50020284908607C
:102EF00000F048FC01BD70B500260020274908807D
:102F00000020274908800020264908600020264923
:102F1000086000201F49086000201F490860002049
:102F20002249086000200400EFF31080060072B60A
:102F300000200500ADB2002D0BD10020154908601E
:102F4000FFF799FFFFF7ABFF1248006804196D1CEB
:102F5000F0E70120B4FBF0F01449086000200D49AF
:102F6000086000200C49086086F3108870BD0100DD
:102F700008000E4A1268824203D20C4A1268801A74
:102F800001E000221000704700000000AC3B002070
:102F9000D83B0020E83B0020EC3B0020843C002094
:102FA000863C0020DC3B0020E03B0020E43B00208E
:102FB00038B504005FF0FF31200000F003F8050091
:102FC000280032BD10B40200130000242000002BA2
:102FD00007D01C78002C04D0884202D25B1C401C15
:102FE000F5E710BC704770B40300002B01D100203E
:102FF00021E0002901D100201DE01C000D0000206F
:103000000600002C0CD0002D0AD02878002807D00C
:10301000964205D228782070641C6D1C761CF0E75F
:10302000002C01D0002D01D1002004E0964201D2F5
:1030300000202070180070BC704770B504000D00AF
:103040005FF0FF322900200000F004F80600300095
:1030500000B270BD2DE9F0410300002A01D100202B
:103060005DE0002B09D1002901D1002057E008784C
:1030700040420700380000B251E0002904D118781E
:103080000700380000B24AE01C000D00A446AE461E
:103090001CF1010C1EF1010E00200600207895F8AD
:1030A0000080404512D1207800280FD0BCF1000FDD
:1030B0000CD0BEF1000F09D0964207D2641C6D1CE3
:1030C0001CF1010C1EF1010E761CE7E7964201D1BE
:1030D000002024E0207895F80080404506D0207834
:1030E00095F80080B0EB0800070016E02078002873
:1030F00002D10020070010E0BCF1000F0AD1BEF1A0
:10310000000F02D10020070007E09EF800004042B7
:10311000070002E09CF800000700380000B2BDE89C
:10312000F08110B40260DBB2012B01D1002400E079
:1031300014004460002484600024C460016110BC59
:103140007047016841608168C16070472DE9F843AC
:1031500004000D005FF00009EFF31080814672B6A5
:10316000FFF789FE2068804660680600464505D165
:10317000FFF795FE89F31088002013E0A068070090
:103180002069385C2870701C6060781C404502D152
:103190000020A06001E0781CA060FFF780FE89F3AA
:1031A00010880120BDE8F2832DE9F84304000D00EA
:1031B0005FF00009EFF31080814672B6FFF75BFE07
:1031C00060680600002E05D1FFF769FE89F31088BC
:1031D000002014E0E068070020693D54701E606024
:1031E00020688046781C404502D10020E06001E064
:1031F000781CE060FFF753FE89F310880120BDE8DA
:10320000F2832DE9F04104000D005FF00008EFF3B8
:103210001080804672B6FFF72EFE200000F02DF8D9
:103220000700FFB2002F05D1FFF739FE88F31088A1
:10323000002020E0A06806002069305CEDB2A842C2
:1032400007D00020A060FFF72AFE88F31088002036
:1032500011E0761C2068864207D10020A060FFF7AD
:103260001EFE88F31088012005E0A660FFF717FE18
:1032700088F310880020BDE8F08101004A68002A28
:1032800001D1012000E00020C0B2704701000A68AF
:103290001000704701000A684B68D21A100070478E
:1032A0002DE9F04104000D0016001F005FF000083A
:1032B000EFF31080804672B6FFF7DDFDDFF8E00324
:1032C0002060266200206062656014F1080000F052
:1032D000DBFD200000F0A6F9DFF8C8030088401CE1
:1032E000DFF8C0130880FFF7DAFD88F310880020AC
:1032F0003880BDE8F0812DE9F04F83B004000D0067
:1033000016005FF0000B2068DFF89413884204D0A9
:1033100045F6C4503080002063E0EFF31080834610
:1033200072B6FFF7A8FD14F108008146B9F808004D
:103330000700B846ADB2002D02D0012D21D047E0E4
:103340001FFA88F8B8F1000F13D1200000F07EF9C1
:10335000DFF850030088401EDFF848130880200083
:1033600000F051F9FFF79BFD8BF3108800203080AF
:1033700006E0FFF794FD8BF3108847F25F10308072
:103380002DE000F016FA0090BFB2002F0CD0D9F853
:1033900000000190019880688246009A5146200002
:1033A00000F0FEFD7F1EEFE7200000F04FF9BD4862
:1033B0000088401EBB490880200000F024F9FFF778
:1033C0006EFD8BF3108800F013FB0020308006E0C8
:1033D000FFF765FD8BF3108845F625603080404689
:1033E00080B2BDE8FE8F2DE9F04788B004000D00E3
:1033F00016001F00DDF840805FF0000A2068A84931
:10340000884205D045F6C450A8F80000002092E09C
:10341000002F01D000203860EFF31080824672B692
:10342000FFF729FD206A002811D0206A401E206283
:10343000002F01D0606A3860206A8146FFF72FFDB7
:103440008AF310880020A8F80000484673E0300492
:103450000BD5206A8146FFF722FD8AF3108846F2D9
:10346000B010A8F80000484665E08F4800780028B2
:1034700009D0FFF714FD8AF3108846F66350A8F8C8
:103480000000002057E02B000622210000A800F0D9
:10349000CFFBFFF704FD8AF3108800F0A9FAEFF3E1
:1034A0001080824672B6FFF7E6FC8048006890F80C
:1034B0003500002805D0022821D00CD3032815D0D0
:1034C00028E0002F03D079480068806C3860002025
:1034D000A8F8000028E0002F03D074480068806C32
:1034E000386046F2A910A8F800001DE0002F01D0B6
:1034F0000020386047F2D920A8F8000014E0002F1F
:1035000003D06A480068806C386045F6C250A8F85D
:10351000000009E046F62E60A8F80000FFF7BFFCA7
:103520008AF31088002006E0206A8146FFF7B7FC86
:103530008AF31088484608B0BDE8F0872DE9F84FB7
:1035400004000D0016005FF0000B2068544988420B
:1035500004D045F6C4503080002036E0EFF31080F0
:10356000834672B6FFF787FC14F10800070038891C
:10357000002808D1FFF793FC8BF3108846F2AB10BC
:103580003080002021E00020824600F012F98146C0
:10359000388900280DD03868806880464A46414600
:1035A000200000F081FB1AF1010AADB2B5F5807F71
:1035B000EED0FFF774FC8BF31088280401D400F0E0
:1035C00017FA00203080504680B2BDE8F28F2DE916
:1035D000F04104000D00160020683149884204D0F3
:1035E00045F6C450308000200BE000F0E2F8804641
:1035F00033004246290089B2200000F05FF807003E
:103600003800BDE8F08110B5040029482060002092
:103610002062002060622748606014F1080000F01A
:1036200033FC10BD1DA1C16100214161224909681F
:10363000002902D10021816105E01F4909688161EB
:103640001D49096848611C490860704743691A00B0
:1036500083691900002A08D1174B1960002901D08D
:1036600000234B61002383610CE0002904D1002377
:1036700093610023436105E091614A610023836106
:1036800000234361704700210B4A11600021054A65
:103690001180002101807047000000002000000020
:1036A00053454D41903C0020A03C0020703C002040
:1036B0004E4F4E4590960008343C00202DE9F04FC7
:1036C00085B004000D0016001F005FF0000AEFF344
:1036D0001080824672B6FFF7CEFB14F1080001900D
:1036E0000198008900281AD1206A10F1010F08D131
:1036F000FFF7D5FB8AF3108846F6C55038800020C6
:103700003CE0206A401C2062206A83466662FFF724
:10371000C6FB8AF310880020388058462EE0A805A2
:1037200003D501980089804601E001208046019878
:10373000006881461FFA88F8B8F1000F11D0D9F857
:1037400008000290D9F8040003900096002300229C
:103750000299200000F097FC03988146B8F1010817
:10376000E8E7206A8346FFF79AFB8AF3108828046B
:1037700001D400F03DF900203880584605B0BDE87E
:10378000F08F0C0010B500F050FE04000B480068EC
:1037900050F0807009490860002009490860094814
:1037A000006850F00100074908602000FFF72BFB7C
:1037B00010BD03490968080070470000FCED00E0F7
:1037C000041000E0001000E070B5040000F043FFBA
:1037D0000020DFF8341B08700020DFF8301B087071
:1037E0000020DFF82C1B08700020DFF8281B086081
:1037F0000020DFF8241B08600020DFF8201B087081
:103800000020DFF81C1B08700020DFF8181B087070
:10381000DFF8140B0068002810D0DFF8100B0068E8
:103820000500002D0AD0DFF8000B00680600002E0E
:1038300004D0761E002028602D1DF8E70020DFF858
:10384000F01A08600020DFF8EC1A08600020DFF8AA
:10385000E81A08600020DFF8E41A08600020DFF8AA
:10386000E01A08600020DFF8DC1A08600020DFF8AA
:10387000D81A08600020DFF8D41A087001F0A2F806
:1038800000F091FC200001F0ACFA208800283FD124
:10389000200001F0B1FB2088002839D1200001F080
:1038A000B9FB2088002833D1200001F07CFE20885D
:1038B00000282DD1200001F0E4FF2088002827D126
:1038C0002000FFF7E0FE2088002821D1200002F030
:1038D00068FA208800281BD1200000F080F9208899
:1038E000002815D1200002F01FFD208800280FD1EC
:1038F000200003F0ACF92088002809D1200003F053
:1039000029FA2088002803D103F03AFB03F04EFC8B
:1039100070BDDFF8F809007801280BD1DFF8E8095D
:103920000078FA2806DADFF8E0090078401CDFF8B2
:10393000D8190870704710B50024DFF8D009007856
:10394000012854D1EFF31080040072B6DFF8B809F3
:103950000078002802D184F3108848E0DFF8A80935
:103960000078401EDFF8A0190870DFF89C09007885
:10397000002802D084F3108839E0DFF89409007839
:10398000002802D084F3108831E001F026F8DFF837
:1039900090190870DFF8880900780C21DFF8B02949
:1039A00001FB00200068DFF870190860DFF8680983
:1039B0000068DFF860190968884202D184F3108832
:1039C00015E0DFF854090068D0F88C00401CDFF8DF
:1039D00048190968C1F88C00DFF878090068401CB4
:1039E000DFF87019086003F095FC84F3108810BDAF
:1039F00010B50024DFF81009007800283CD1DFF86A
:103A000010090078002837D1EFF31080040072B657
:103A100000F0E3FFDFF808190870DFF80409007808
:103A20000C21DFF82C2901FB00200068DFF8E818E2
:103A30000860DFF8E4080068DFF8D81809688842F1
:103A400002D184F3108817E0DFF8CC080068D0F8C2
:103A50008C00401CDFF8C0180968C1F88C00DFF842
:103A6000F4080068401CDFF8EC18086003F04EFC16
:103A700084F31088BFF36F8F10BD38B504000025A4
:103A8000DFF888080078012803D045F68960208097
:103A90001BE0DFF87C080078FA2803DB45F20920F8
:103AA000208012E0EFF31080050072B6FFF7E3F913
:103AB000DFF85C080078401CDFF854180870FFF746
:103AC000EEF985F310880020208031BD38B5040060
:103AD0000025DFF838080078012803D045F6896012
:103AE00020802AE0DFF828080078002803D146F675
:103AF0006450208021E0EFF31080050072B6FFF7DC
:103B0000BAF9DFF80C080078401EDFF804180870D6
:103B1000DFF8FC070078002807D0FFF7C0F985F32D
:103B2000108846F66350208007E0FFF7B8F985F368
:103B30001088FFF75DFF0020208031BD10B5040024
:103B4000DFF8C8070078002826D100F046FFDFF82C
:103B5000D0170870DFF8C8070078DFF8C0170870C2
:103B6000DFF8BC0700780C21DFF8E42701FB002018
:103B70000068DFF8A4170860DFF89C070068DFF82A
:103B8000941708600120DFF88417087003F080FBA9
:103B900043F69920208002E045F68A60208010BD1F
:103BA00011B581B0002401A8EFF31080040072B6B3
:103BB000FFF761F9DFF8A0070068401CDFF89817ED
:103BC0000860DFF898070068401CDFF8901708606D
:103BD000FFF765F984F3108800F034FDE4E710B5D1
:103BE0008AB004000020DFF87017086008940B20EA
:103BF0000790002006900020059000200490DFF838
:103C0000600700680390DFF85C0700680290DFF847
:103C10005807006801901F2000900023DFF84C2710
:103C2000DFF84C17DFF84C0701F0AAFE0AB010BD10
:103C30002DE9F04104000D0016001F00DFF8D40646
:103C4000006880F834600020DFF8C816096881F841
:103C500035003900DFF8BC06006800F03EFB002D9F
:103C60000FD015F108008046E56001222100DFF841
:103C7000A406006800F08FF82100404600F00BF920
:103C80000AE00020DFF88C160968A1F84600002041
:103C9000DFF8801609680863DFF8780601682800F5
:103CA00000F095F8BDE8F08170B504000D00160035
:103CB00095F8360000280BD002280AD008D3042833
:103CC00006D006D306282CD002D3072829D04DE0F1
:103CD0004CE095F83400032804D13200290020007C
:103CE00000F045F80020A8650020A5F85C00AE644F
:103CF000002C02D0280000F00BF995F836000328BC
:103D000002D1280002F018FC280000F060FA002020
:103D100085F83600012085F83500002085F834004C
:103D200024E095F83400032804D132002900200053
:103D300000F01DF80020A8650020A5F85C00AE6426
:103D4000002C02D0280000F0E3F895F83600072890
:103D500002D1280002F0F0FB042085F83600012093
:103D600085F83500002085F83400FFE770BD30B4D9
:103D70000D6B2C00B1F846502B009BB2002B08D0E5
:103D8000E568A84202D12061E26102E020345B1EB6
:103D9000F3E730BC704710B4A0F84620016300245C
:103DA00023009BB292B293420FD200244C600024B5
:103DB0000C6000240C6100244C6100240C8300245E
:103DC000CC61886020315B1CEBE710BC704730B4DD
:103DD00000280CD04568C1F8BC5010F108052A0035
:103DE00015682B009D682C00256AC56113E091F8C9
:103DF0003450022D02D0072D05D009E0DFF87855A8
:103E0000C1F8BC5007E0DFF87455C1F8BC5002E0BF
:103E10000CA5C1F8BC5030BC704730B409A5C1F83E
:103E2000BC5010F108052A0015682B00002B04D0A7
:103E30009D682C00256AC56101E002A5C56130BC02
:103E400070470000200000002DE9F0410400206BC5
:103E50000600B4F846000500ADB2002D12D0F0689F
:103E6000804618F1080007003889022807D331007E
:103E7000380000F06BF83100380000F00CF8203604
:103E80006D1EE9E7BDE8F08100210160002141607D
:103E9000002101817047F0B48F683B0093F83770C0
:103EA0003A000789002F08D10127078100274F60BA
:103EB00000270F600160416028E007897F1C0781AF
:103EC00007683E00002E08D0B7683C0094F83770B1
:103ED000D2B2BA4201D37668F4E7002E07D10027A8
:103EE0004F6047683D000D60696041600EE03768D3
:103EF000002F05D1316000270F604E60016005E0A2
:103F000037683D000D604E6069603160F0BC7047FD
:103F10002DE9F0410400206B0600B4F846000500CE
:103F2000ADB2002D0BD0F068804618F108000700F4
:103F30003100380000F00AF820366D1EF0E700204E
:103F4000A4F8460000202063BDE8F08110B4048985
:103F5000012C04D1002404600024446017E00C68A4
:103F6000002C05D14C68230000241C6003600EE087
:103F70004C68002C05D10C6822000024546042607B
:103F800005E00C6822004C68230053601A60048925
:103F9000641E048100244C6000240C6010BC704737
:103FA00070B504000D00160095F8360000280BD0FF
:103FB00002280AD008D3042806D006D306282AD01F
:103FC00002D3072827D049E048E095F834000328B9
:103FD00004D132002900200000F041F80020A8653B
:103FE0000020A5F85C00AE642800FFF791FF95F86B
:103FF0003600032802D1280002F09EFA280000F0C3
:10400000E6F8002085F83600022085F8350000200B
:1040100085F8340022E095F83400032804D13200FA
:104020002900200000F01BF80020A8650020A5F85A
:104030005C00AE642800FFF76BFF95F83600072898
:1040400002D1280002F078FA042085F83600022018
:1040500085F83500002085F83400FFE770BD30B4E6
:104060000D6B2C00B1F846502B009BB2002B08D0F2
:10407000E568A84202D12061E26102E020345B1EC3
:10408000F3E730BC70472DE9F04182B004000D0029
:1040900016001F00DDF8208095F8360000280BD0B0
:1040A00002280AD008D3042806D006D3062834D024
:1040B00002D3072831D05DE05CE095F83400032896
:1040C00009D1CDF800803B009BB2320029002000CE
:1040D00000F052F804E0AE65A5F85C70C5F84880C1
:1040E000002C06D02800FFF713FF29002000FFF75F
:1040F00094FE95F83600032802D1280002F01CFA3D
:10410000280000F064F8002085F83600002085F8CB
:104110003500002085F834002CE095F834000328A1
:1041200009D1CDF800803B009BB23200290020006D
:1041300000F022F804E0AE65A5F85C70C5F8488090
:10414000002C06D02800FFF7E3FE29002000FFF72F
:1041500064FE95F83600072802D1280002F0ECF939
:10416000042085F83600002085F83500002085F809
:104170003400FFE7BDE8F381F0B4049C0F6B3E0010
:10418000B1F846703D00ADB2002D0AD0F768B842D4
:1041900004D1306172613383F46102E020366D1E18
:1041A000F1E7F0BC704700221000C0B220280DD209
:1041B000C0B20C22664B02FB0032110000220A81C1
:1041C00000220A6000224A60401CEEE7704710B5EA
:1041D000040094F8370000F013FC94F837004F49BE
:1041E0000978884203D1200000F026F802E0200080
:1041F00000F001F810BD30B490F837300C24544D65
:1042000004FB035319000B89002B08D101230B81F8
:104210000023C36000230361086048600AE00B8943
:104220005B1C0B810B68C360002303610B681A00E1
:104230001061086030BC704730B490F837300C24FF
:10424000434D04FB035319000B89002B08D10123B4
:104250000B810023C360002303610860486009E00C
:104260000B895B1C0B810023C3604B681A00026141
:10427000D060486030BC7047F8B5040094F837004F
:104280000C21334A01FB0020050020690600E0688C
:104290000700002E13D1002F0AD100202881002012
:1042A00028600020686094F8370000F0C1FB0FE040
:1042B0002889401E2881002038612F6008E0288965
:1042C000401E2881F760002F01D16E6000E03E6142
:1042D000002020610020E060F1BD38B504000D0031
:1042E000002D08D02A002100254802F07EF8032086
:1042F00084F8360002E0022084F836002000FFF740
:10430000BBFF31BD000000009B3C00209C3C002016
:10431000A03C0020703C0020743C00209D3C00200C
:104320009E3C00209F3C0020B4960008B0960008F8
:10433000003C0020043C0020083C00200C3C0020F5
:10434000103C0020143C0020183C0020A33C00201E
:10435000702F0020483C00201C3C0020383C0020EE
:10436000A8960008A4960008A0960008A13B0008A3
:104370006495000878370020889600086C9600083D
:10438000D03B002030B593B003F01BF803F0E2F906
:104390009F48006850F080509D4908609C48006824
:1043A00010F080500090009C9A48006850F48040C3
:1043B000984908609748006810F480400090009D7C
:1043C000012006900120079002200C905FF48000ED
:1043D0000D9008200E904FF4A8700F9002201090BE
:1043E0000720119006A803F0F2F90F200190022097
:1043F0000290002003904FF4A05004904FF480509E
:104400000590052101A803F0A7FB03F097FD41F2F9
:104410000101884205D18048006850F480707E49CF
:10442000086000F022F813B030BD10B503F028FD8D
:104430000400200010BD10B50400002003F097FD1B
:1044400076480078002801D000F002F8002010BD66
:1044500038B5FFF7EAFF040071480068B4FBF0F0DC
:104460000500280000F042FA31BD00B585B00820F3
:1044700003F0E5FD4FF47F600090002001900020E4
:1044800002900220039000A9664803F0AFFE0020CE
:1044900003F0D5FD1020009000A9634803F0A6FEAC
:1044A000012003F0CCFD0720009000A95F4803F035
:1044B0009DFE022003F0C3FD42F23E00009000A9E1
:1044C0005B4803F093FE042003F0B9FD1C2000902C
:1044D00000A9584803F08AFE052003F0B0FD41F61C
:1044E0001F00009000A9544803F080FE072003F04D
:1044F000A6FD3C20009000A9504803F077FE05205F
:1045000003F09DFD4FF460400090012001900120D8
:1045100002900220039000A9474803F067FE0420A0
:1045200003F08DFD4FF68010009000A9414803F084
:104530005DFE032003F083FD4FF47C40009000A952
:104540003F4803F053FE05B000BD10B50400E4B2CF
:10455000002C06D0022C17D00FD3042C22D01AD353
:1045600026E000224FF46041334803F038FF002278
:104570008021304803F033FF1AE000224FF400514D
:104580002D4803F02CFF13E000224FF480412A480D
:1045900003F025FF0CE000224FF40041264803F011
:1045A0001EFF05E000228021224803F018FFFFE7EC
:1045B00010BD10B50400E4B2002C06D0022C14D0BB
:1045C0000DD3042C1DD016D320E04FF460411A48BF
:1045D00003F00FFF8021174803F00BFF16E04FF4A4
:1045E0000051154803F005FF10E04FF480411248D8
:1045F00003F0FFFE0AE04FF400410F4803F0F9FE1C
:1046000004E080210B4803F0F4FEFFE710BD00003A
:104610004038024000700040003C02409C3C0020BA
:10462000DC96000800200240000002400004024026
:10463000000802400010024000140240001C02402A
:10464000000C024080B5B5480068002802D0B3488D
:104650000068804701BDB2480068B249096811EBA3
:104660008000B1490860B0480068C008C000AE4989
:104670000860704780B5AD480068002802D0AB489C
:104680000068804701BD10B50400A94800680028F3
:1046900003D02000A6490968884710BD10B5040062
:1046A000A4480068002803D02000A2490968884770
:1046B00010BDF0B40500049E059C12EB860738007F
:1046C000C008C000001F5FF080770760001F056012
:1046D000001F994F0760001F5FF012370760001F2F
:1046E0005FF003370760001F5FF002370760001FAD
:1046F0000360001F0160001F5FF011370760001F9B
:104700005FF010370760001F5FF009370760001F78
:104710005FF008370760001F5FF007370760001F72
:104720005FF006370760001F5FF005370760001F66
:104730005FF004370760670768D5001F5FF00077F8
:104740000760001F7D4F0760001F7D4F0760001F3F
:104750007C4F0760001F7C4F0760001F7B4F076086
:10476000001F7B4F0760001F7A4F0760001F7A4FC2
:104770000760001F794F0760001F794F0760001F17
:10478000784F0760001F784F0760001F774F076062
:10479000001F774F0760001F764F0760001F5FF014
:1047A00083470760001F744F0760001F734F076047
:1047B000001F734F0760001F724F0760001F724F8A
:1047C0000760001F714F0760001F714F0760001FD7
:1047D0005FF082470760001F6E4F0760001F6E4F3B
:1047E0000760001F6D4F0760001F5FF08147076083
:1047F000001F6B4F0760001F5FF080470760001FBE
:104800005FF07E570760001F00270760F0BC70470D
:1048100038B56448006890F84400400704D5614802
:104820000068006802F01EFD5F48006890F84400D0
:10483000400704D55C480068006802F020FD5B4832
:104840000068002802D0594800688047FEF7B1FF91
:1048500004005448006854490968884215D05148FA
:104860000068D0F89400201A4E490968C1F89000F9
:104870004C480068D0F898004A490968D1F890106F
:10488000081848490968C1F8980047480068C0F806
:104890009440FEF7BCFA050042480068D0F8B0002A
:1048A000A84203D23F480068C0F8B05031BD80B57F
:1048B0003F480068002802D03D480068804701BD9D
:1048C00010B50024EFF31080040072B6FEF7D3FA9F
:1048D00038480078401C37490870FEF7E0FA84F346
:1048E000108803F075FEFFF726F810BD421E324B0C
:1048F0001A60324A126811000902090A2F4A11602F
:104900002F4A126852F005022D4B1A602C4A126889
:1049100052F002022A4B1A60704700000C3C002043
:10492000B4960008B0960008F83B0020103C002028
:10493000003C0020083C0020C95F00080000F8414E
:104940000000F0410000E8410000E0410000D841D3
:104950000000D0410000C8410000C0410000B84143
:104960000000B0410000A8410000A04100009841B3
:10497000000090410000884100007041000060414B
:104980000000504100004041000030410000204143
:10499000000010410000E0400000C0400000A040C6
:1049A00000004040703C0020743C0020143C00207B
:1049B000183C00209B3C002014E000E020ED00E0CB
:1049C00010E000E000210800002805D10021244A61
:1049D00042F82010401CF7E7704738B5002005006A
:1049E0001F4804002068002802D12035241DF9E763
:1049F0002068B0FA80F0401905002800C0B232BD2E
:104A000030B4C0B244092300C0B210F01F04220029
:104A100001242100D2F11F04A140DBB2104C54F854
:104A200023400C43DBB20E4D45F8234030BC7047A9
:104A300030B4C0B244092300C0B210F01F042200F9
:104A400001242100D2F11F04A140DBB2044C54F830
:104A500023408C43DBB2024D45F8234030BC704705
:104A6000FC3B00202DE9F04104000D0016001F0062
:104A70005FF00008EFF31080804672B6FEF7FBF996
:104A8000DFF89C032060656026620020606214F1FC
:104A90000800FFF7F9F9200000F0ACF9DFF8840313
:104AA0000088401CDFF87C130880FEF7F8F988F3D3
:104AB000108800203880BDE8F0812DE9F04F8BB0E0
:104AC00004000D0016001F00DDF85080DDF8549042
:104AD0005FF0000B2068DFF84813884205D045F6E8
:104AE000C450A9F8000000203EE1F80503D50120DC
:104AF0008DF8040002E000208DF80400B8F1000FEA
:104B000002D00020C8F8000017F00F00ADF8060032
:104B1000EFF31080834672B6FEF7ADF9BDF80600DC
:104B2000042802D0082848D08FE0206A2840824616
:104B3000AA451BD19DF80400012803D1206A30EA60
:104B40000A002062DFF8E0020068C0F880A0B8F137
:104B5000000F02D0606AC8F80000FEF7A0F98BF3DE
:104B600010880020A9F800005046FDE0380409D55F
:104B7000FEF795F98BF3108846F2B010A9F8000003
:104B80000020F1E0A9480078002809D0FEF787F955
:104B90008BF3108846F66350A9F800000020E3E08C
:104BA00000963B009BB22A00210002A800F0FDF80D
:104BB000FEF775F98BF3108851E0206A2840824691
:104BC000BAF1000F1AD09DF80400012803D1206A21
:104BD00030EA0A00206294480068C0F880A0B8F16A
:104BE000000F02D0606AC8F80000FEF758F98BF396
:104BF00010880020A9F800005046B5E0380409D517
:104C0000FEF74DF98BF3108846F2B010A9F80000BA
:104C10000020A9E085480078002809D0FEF73FF978
:104C20008BF3108846F66350A9F8000000209BE043
:104C300000963B009BB22A00210002A800F0B5F8C4
:104C4000FEF72DF98BF3108809E0FEF728F98BF3B6
:104C5000108845F62560A9F80000002084E0FEF7E2
:104C6000C7FEEFF31080834672B6FEF704F96E4874
:104C7000006890F83500002805D002282FD00ED308
:104C800003281DD03CE0B8F1000F04D0664800684E
:104C9000806CC8F800000020A9F8000038E0B8F1E6
:104CA000000F04D060480068806CC8F80000FEF770
:104CB000F6F88BF3108846F2A910A9F8000027E057
:104CC000B8F1000F02D00020C8F80000FEF7E7F8A6
:104CD0008BF3108847F2D920A9F8000018E0B8F14A
:104CE000000F04D050480068806CC8F80000FEF740
:104CF000D6F88BF3108845F6C250A9F8000007E0FB
:104D0000FEF7CDF88BF3108846F62E60A9F8000068
:104D1000B9F80000002801D0002025E042480068D2
:104D2000D0F8800082469DF80400012814D1BDF817
:104D30000600042801D0082804D1206A30EA0A00BD
:104D4000206209E0FEF7ABF88BF3108845F625608A
:104D5000A9F80000002007E0FEF7A1F88BF3108807
:104D60000020A9F8000050460BB0BDE8F08F2DE9F7
:104D7000F84304000D0016001F00206828498842EF
:104D800004D045F6C450388000200CE0FEF711FD39
:104D9000814600974B46320092B22900200000F075
:104DA00049F880464046BDE8F2832DE9F041040011
:104DB0000D0016001F00DDF818801B480068C6674C
:104DC00019480068A0F88470002017490968C1F8E4
:104DD00080004346012229002000FEF729FFBDE89C
:104DE000F0810021124A116000210E4A1180002139
:104DF0000180704709A1C161002141610C49096826
:104E0000002902D10021816105E009490968816119
:104E1000074909684861064908607047200000009A
:104E2000464C4147883C0020703C0020A03C0020BC
:104E3000243C00202DE9F24F84B0834614001D006D
:104E40000E9E5FF0000AEFF31080824672B6FEF706
:104E500012F8A4B22000002809D001280ED0B0F525
:104E6000004F04D048F20101884207D00DE0DBF882
:104E7000200004990843CBF820000FE0DBF8200065
:104E800004998843CBF8200008E0FEF708F88AF37D
:104E9000108845F625603080002075E0CBF824505E
:104EA0001BF10800009000980089002808D1FDF748
:104EB000F6FF8AF3108800203080DBF8200063E0E2
:104EC000009800688046D8F808008146B9F1000FC4
:104ED00042D0D8F80400019099F8840010F00F0037
:104EE000ADF80800BDF80800042802D0082810D04A
:104EF0001DE0DBF82000D9F87C1008400700D9F845
:104F00007C00874204D12A003900484600F03FF86F
:104F100016E0DBF82000D9F87C1008400700002FCD
:104F200004D02A003900484600F031F808E0FDF7C7
:104F3000B6FF8AF3108843F6FF203080002023E07C
:104F400001988046B8F1000F03D0D8F808008146D8
:104F5000BCE700208146B9E7FDF7A1FF8AF310887E
:104F6000200401D4FEF744FDEFF31080824672B6B0
:104F7000FDF781FFDBF820000390FDF790FF8AF337
:104F8000108800203080039805B0BDE8F08F70B520
:104F900004000D001600C4F88050002084F835008D
:104FA000002084F83400A66494F8360000280BD062
:104FB00002280AD008D3042806D006D3062812D027
:104FC00002D307280FD012E011E094F8360003282E
:104FD00002D1200001F0B0FA2000FFF7F8F800201D
:104FE00084F8360003E0042084F83600FFE7200050
:104FF000FEF78EFF70BD10000021054A11600021F0
:10500000024A118000210180704700008A3C002084
:10501000283C002070B4804D2D6829007E4D2D68FD
:105020002C0010347D4D2D886D1E2B0000252A008C
:1050300092B29BB29A420AD20C6000254D600025C4
:105040000D810025CD6010311034521CF0E7002591
:105050000D6000254D6000250D810025CD606E4D51
:105060002D686F4E35606D4D2D886D4EB5800025D5
:105070006B4EF58000256A4E35810025058070BC99
:105080007047018100224281002282810022026059
:10509000002242607047F0B40400608900280AD101
:1050A00000200880002A01D00020106046F29250B3
:1050B0001880002028E060680500686806002889DC
:1050C0000880002A01D0E868106028686060606885
:1050D000002804D1002020600020608102E0608967
:1050E000401E60814E48006828604D4805604C486D
:1050F0008088401C4A4FB8804948C088401E484FAD
:10510000F880002018803000F0BC7047F0B5059C96
:10511000069DB0F80AC0B0F808E0F44504D346F2A2
:10512000935CA5F800C075E0DFF8F4C0BCF804C0DB
:10513000BCF1000F04D145F21D7CA5F800C069E068
:10514000DFF8DCC0DCF800C06646D6F800C0DFF847
:10515000D0E0CEF800C0DFF8C8C0BCF804C0BCF195
:10516000010CDFF8BCE0AEF804C0DFF8B4C0BCF856
:1051700006C01CF1010CDFF8A8E0AEF806C0DFF8AD
:10518000A0C0BCF808C0DFF898E0BEF806E0F4451F
:1051900007D2DFF88CC0BCF806C0DFF884E0AEF8B8
:1051A00008C0B0F80AC0BCF1000F0AD10660466022
:1051B0005FF0010CA0F80AC05FF0000CC6F800C058
:1051C00017E05FEAC36C09D4D0F800C067463E60C0
:1051D00006605FF0000CC6F800C004E0D0F804C020
:1051E000C6F800C04660B0F80AC01CF1010CA0F877
:1051F0000AC0B0F80CC0B0F80AE0F44503D2B0F829
:105200000AC0A0F80CC071603281F4605FF0000C3D
:10521000A5F800C0F0BD0000C0960008721100089B
:10522000BC3B0020F8B504000D0016000027EFF38A
:105230001080070072B6FDF71EFEDFF884032060C1
:1052400065600020206200206062002084F8280051
:105250000020E06214F10800FEF716FE200000F0C6
:105260008EF9DFF860030088401CDFF858130880CF
:10527000FDF715FE87F3108800203080F1BD2DE981
:10528000F04788B004000D0016001F00DDF84080D4
:105290005FF0000A2068DFF82813884204D045F642
:1052A000C450A8F80000C1E0002F01D000203860F1
:1052B000EFF31080824672B6FDF7DDFD94F828000A
:1052C000002817D1DFF8000300686062012084F82D
:1052D0002800002F01D0E06A38602100BA48006839
:1052E00000F07AF9FDF7DBFD8AF310880020A8F8BA
:1052F00000009BE0B4480068616A88421ED194F8BF
:105300002800FF2808D1FDF7CAFD8AF3108845F26E
:105310008470A8F8000089E094F82800401C84F804
:105320002800002F01D0E06A3860FDF7B8FD8AF34D
:10533000108845F28270A8F8000077E0300408D5A4
:10534000FDF7ADFD8AF3108846F2B010A8F8000012
:105350006CE09E480078002808D0FDF7A0FD8AF395
:10536000108846F66350A8F800005FE0606A814646
:105370009548006890F8370099F83710884206D2AF
:105380009148006890F83710484600F019FF2B004C
:105390000422210000A8FEF74BFCFDF780FD8AF3F4
:1053A0001088FEF725FBEFF31080824672B6FDF7FA
:1053B00062FD8548006890F83500002805D0022875
:1053C00021D00CD3032815D028E0002F03D07E482D
:1053D0000068806C38600020A8F8000022E0002FF0
:1053E00003D079480068806C386046F2A910A8F8AC
:1053F000000017E0002F01D00020386047F2D920CC
:10540000A8F800000EE0002F03D06F480068806C01
:10541000386045F6C250A8F8000003E046F62E605A
:10542000A8F80000FDF73BFD8AF3108808B0BDE83E
:10543000F0872DE9F84F04000D0016005FF0000B17
:1054400020685F49884203D045F6C450308094E01C
:10545000EFF31080834672B6FDF70DFD5A480068E1
:10546000616A884207D0FDF71AFD8BF3108845F278
:105470008170308081E0FEF79CF98146C4F82C9061
:1054800094F82800401E84F8280094F8280000288A
:1054900007D0FDF704FD8BF3108845F28370308050
:1054A0006BE021004848006800F09AF814F1080009
:1054B0000700388900280BD100206062002084F8A2
:1054C0002800FDF7ECFC8BF310880020308054E0BE
:1054D0003D48006890F837003B49096891F838105A
:1054E00088422CD03848006800F087F88246364859
:1054F000006890F838005FFA8AFA504504D23248C2
:10550000006890F838A0FFE72F48006890F837004F
:105510005FFA8AFA504512D22B480068FEF7ACFEBB
:105520002948006880F837A05046C0B2FFF768FAF3
:1055300025480068FEF780FE254880F800A03868FE
:1055400080688046C4F82480012084F82800210067
:10555000404600F041F8CDF800900023002241467B
:105560002000FEF790FDFDF79AFC8BF310882804CD
:1055700001D4FEF73DFA00203080BDE8F18F0FA185
:10558000C1610021416113490968002902D100214C
:10559000816105E00F49096881610E490968486128
:1055A0000C490860704700210A4A11600021054A31
:1055B00011800021018070470000000020000000E1
:1055C0004D5554588C3C0020703C0020A03C0020DD
:1055D0009D3C00202C3C0020C26B0A62C1637047D6
:1055E00010F13C031A0013688B4202D0126820327B
:1055F000F9E713681B6A1360704730B401001F2578
:10560000280011F13C052A001568002D10D01568FE
:10561000AD682C00002C08D0A56895F837502B00F9
:10562000DBB2C0B2834200D2180012682032EBE72E
:10563000C0B230BC704730002DE9F04104000D00CD
:1056400016001F005FF00008EFF31080804672B66E
:10565000FDF711FC914820606560310089B214F1BA
:105660002000FFF70EFD14F10800FEF70DFC2000EE
:1056700000F0F3F88A480088401C89490880FDF74B
:105680000EFC88F3108800203880BDE8F0812DE9F9
:10569000F04F89B004000D0016001F00DDF84880AF
:1056A000DDF84C905FF0000B20687C49884205D003
:1056B00045F6C450A9F800000020A8E0B8F1000F9A
:1056C00002D00020C8F80000EFF31080834672B6C5
:1056D000FDF7D1FB4B464246390014F12000FFF79D
:1056E000DAFC8246B9F80000002805D1FDF7D7FBA7
:1056F0008BF3108850468AE0300409D5FDF7CFFBC4
:105700008BF3108846F2B010A9F8000000207EE06C
:1057100064480078002809D0FDF7C1FB8BF310889E
:1057200046F66350A9F80000002070E02B00052227
:10573000210000A8FEF77CFAFDF7B1FB8BF310887F
:10574000FEF756F9EFF31080834672B6FDF793FB30
:105750005548006890F83500002805D0022838D058
:1057600017D3032826D045E04F480068806D824655
:105770004D480068B0F85C003880B8F1000F04D0E4
:1057800049480068806CC8F800000020A9F80000B3
:1057900038E00020824600203880B8F1000F04D0A5
:1057A00041480068806CC8F8000046F2A910A9F8CA
:1057B000000027E00020824600203880B8F1000F6A
:1057C00002D00020C8F8000047F2D920A9F8000054
:1057D00018E00020824600203880B8F1000F04D085
:1057E00031480068806CC8F8000045F6C250A9F83E
:1057F000000007E0002082460020388046F62E6038
:10580000A9F80000FDF74BFB8BF31088504609B058
:10581000BDE8F08F2DE9F04383B004000D001600C1
:105820001F00DDF8288020681C49884204D045F616
:10583000C450A8F800000EE0FDF7BBFF8146CDF88C
:105840000480CDF800903B009BB2320092B2290058
:10585000200000F02DF8BDE8F7830FA1C161002101
:10586000416112490968002902D10021816105E0E6
:105870000E49096881610D49096848610B49086052
:1058800070470021094A11600021054A118000215A
:105890000180704700000000200000005155455570
:1058A0008E3C0020A03C0020703C0020303C0020BA
:1058B0002DE9F04F87B004000D0016001F00DDF841
:1058C0004080DDF844905FF0000BEFF310808346DA
:1058D00072B6FDF7D0FA14F108000490049800891C
:1058E00000281AD1F80603D40020ADF8080002E021
:1058F0001020ADF80800CDF80490CDF80080BDF878
:105900000830320092B2290014F12000FFF7FEFBAC
:10591000FDF7C5FA8BF310882EE0B80503D504987F
:105920000089824601E001208246049800680390C5
:105930001FFA8AFABAF1000F13D003988068059015
:10594000039840680690CDF8008033009BB22A008F
:1059500005992000FEF797FB06980390BAF1010A1B
:10596000E6E7FDF79CFA8BF31088380401D4FEF7C4
:105970003FF80020A9F8000007B0BDE8F08F200034
:105980002DE9FE4F84B00500119E139F179C5FF018
:1059900000099DF840001F2808D1DFF82008854243
:1059A00004D046F27320189908807DE0280000F0AA
:1059B00007FA002018990880E0070ED5A0070CD53B
:1059C000B24600208346BB4507D20020CAF800003B
:1059D0001AF1040A1BF1010BF5E7129816EB80008F
:1059E0000290A4B201940097029B32000699059898
:1059F000FEF75FFE82460598A8620698E862049862
:105A000028629DF8400085F837009DF8400085F831
:105A10003800C5F800A00298A86015A8169868601C
:105A20006E622F64A5F84440002080465FFA88F833
:105A3000B8F1000F08D100205FFA88F815EB880153
:105A4000886718F10108F1E7BDF8501015F1600002
:105A5000FFF717FB2800FEF716FEEFF310808146D4
:105A600072B6FDF708FA95F83700FEF7C9FF28006F
:105A7000FEF7E2FB280000F07AF9DFF82C08008836
:105A8000401CDFF824180880DFF82008007801287F
:105A900004D0FDF704FA89F3108805E0FDF7FFF95B
:105AA00089F31088FDF7A4FF07B0BDE8F08F70B54B
:105AB00004000D000026EFF31080060072B6FDF71B
:105AC000DAF9FDF7ECF986F310882900200000F0E0
:105AD00007FA70BD2DE9F84304000D0016001F0001
:105AE0005FF00009002E01D000203060EFF310803D
:105AF000814672B6FDF7BFF9DFF8B4070068C06CE5
:105B000000283ED0DFF8A8070068C06C401EDFF810
:105B1000A0170968C864DFF898070068C06C804661
:105B2000002E04D0DFF888070068806C3060FDF735
:105B300040FEDFF87C170968896C401ADFF870179F
:105B40000968C1F8A000DFF868070068D0F8A40071
